{
  "_format": "hh-sol-artifact-1",
  "contractName": "DgenToken",
  "sourceName": "contracts/DgenToken.sol",
  "abi": [
    {
      "inputs": [
        {
          "internalType": "string",
          "name": "name_",
          "type": "string"
        },
        {
          "internalType": "string",
          "name": "symbol_",
          "type": "string"
        },
        {
          "internalType": "uint8",
          "name": "decimals_",
          "type": "uint8"
        },
        {
          "internalType": "uint256",
          "name": "totalSupply_",
          "type": "uint256"
        }
      ],
      "stateMutability": "nonpayable",
      "type": "constructor"
    },
    {
      "inputs": [],
      "name": "AccessControlBadConfirmation",
      "type": "error"
    },
    {
      "inputs": [
        {
          "internalType": "address",
          "name": "account",
          "type": "address"
        },
        {
          "internalType": "bytes32",
          "name": "neededRole",
          "type": "bytes32"
        }
      ],
      "name": "AccessControlUnauthorizedAccount",
      "type": "error"
    },
    {
      "inputs": [
        {
          "internalType": "address",
          "name": "spender",
          "type": "address"
        },
        {
          "internalType": "uint256",
          "name": "allowance",
          "type": "uint256"
        },
        {
          "internalType": "uint256",
          "name": "needed",
          "type": "uint256"
        }
      ],
      "name": "ERC20InsufficientAllowance",
      "type": "error"
    },
    {
      "inputs": [
        {
          "internalType": "address",
          "name": "sender",
          "type": "address"
        },
        {
          "internalType": "uint256",
          "name": "balance",
          "type": "uint256"
        },
        {
          "internalType": "uint256",
          "name": "needed",
          "type": "uint256"
        }
      ],
      "name": "ERC20InsufficientBalance",
      "type": "error"
    },
    {
      "inputs": [
        {
          "internalType": "address",
          "name": "approver",
          "type": "address"
        }
      ],
      "name": "ERC20InvalidApprover",
      "type": "error"
    },
    {
      "inputs": [
        {
          "internalType": "address",
          "name": "receiver",
          "type": "address"
        }
      ],
      "name": "ERC20InvalidReceiver",
      "type": "error"
    },
    {
      "inputs": [
        {
          "internalType": "address",
          "name": "sender",
          "type": "address"
        }
      ],
      "name": "ERC20InvalidSender",
      "type": "error"
    },
    {
      "inputs": [
        {
          "internalType": "address",
          "name": "spender",
          "type": "address"
        }
      ],
      "name": "ERC20InvalidSpender",
      "type": "error"
    },
    {
      "anonymous": false,
      "inputs": [
        {
          "indexed": true,
          "internalType": "address",
          "name": "owner",
          "type": "address"
        },
        {
          "indexed": true,
          "internalType": "address",
          "name": "spender",
          "type": "address"
        },
        {
          "indexed": false,
          "internalType": "uint256",
          "name": "value",
          "type": "uint256"
        }
      ],
      "name": "Approval",
      "type": "event"
    },
    {
      "anonymous": false,
      "inputs": [
        {
          "indexed": true,
          "internalType": "bytes32",
          "name": "role",
          "type": "bytes32"
        },
        {
          "indexed": true,
          "internalType": "bytes32",
          "name": "previousAdminRole",
          "type": "bytes32"
        },
        {
          "indexed": true,
          "internalType": "bytes32",
          "name": "newAdminRole",
          "type": "bytes32"
        }
      ],
      "name": "RoleAdminChanged",
      "type": "event"
    },
    {
      "anonymous": false,
      "inputs": [
        {
          "indexed": true,
          "internalType": "bytes32",
          "name": "role",
          "type": "bytes32"
        },
        {
          "indexed": true,
          "internalType": "address",
          "name": "account",
          "type": "address"
        },
        {
          "indexed": true,
          "internalType": "address",
          "name": "sender",
          "type": "address"
        }
      ],
      "name": "RoleGranted",
      "type": "event"
    },
    {
      "anonymous": false,
      "inputs": [
        {
          "indexed": true,
          "internalType": "bytes32",
          "name": "role",
          "type": "bytes32"
        },
        {
          "indexed": true,
          "internalType": "address",
          "name": "account",
          "type": "address"
        },
        {
          "indexed": true,
          "internalType": "address",
          "name": "sender",
          "type": "address"
        }
      ],
      "name": "RoleRevoked",
      "type": "event"
    },
    {
      "anonymous": false,
      "inputs": [
        {
          "indexed": true,
          "internalType": "address",
          "name": "from",
          "type": "address"
        },
        {
          "indexed": true,
          "internalType": "address",
          "name": "to",
          "type": "address"
        },
        {
          "indexed": false,
          "internalType": "uint256",
          "name": "value",
          "type": "uint256"
        }
      ],
      "name": "Transfer",
      "type": "event"
    },
    {
      "inputs": [],
      "name": "DEFAULT_ADMIN_ROLE",
      "outputs": [
        {
          "internalType": "bytes32",
          "name": "",
          "type": "bytes32"
        }
      ],
      "stateMutability": "view",
      "type": "function"
    },
    {
      "inputs": [
        {
          "internalType": "address",
          "name": "owner",
          "type": "address"
        },
        {
          "internalType": "address",
          "name": "spender",
          "type": "address"
        }
      ],
      "name": "allowance",
      "outputs": [
        {
          "internalType": "uint256",
          "name": "",
          "type": "uint256"
        }
      ],
      "stateMutability": "view",
      "type": "function"
    },
    {
      "inputs": [
        {
          "internalType": "address",
          "name": "spender",
          "type": "address"
        },
        {
          "internalType": "uint256",
          "name": "value",
          "type": "uint256"
        }
      ],
      "name": "approve",
      "outputs": [
        {
          "internalType": "bool",
          "name": "",
          "type": "bool"
        }
      ],
      "stateMutability": "nonpayable",
      "type": "function"
    },
    {
      "inputs": [
        {
          "internalType": "address",
          "name": "account",
          "type": "address"
        }
      ],
      "name": "balanceOf",
      "outputs": [
        {
          "internalType": "uint256",
          "name": "",
          "type": "uint256"
        }
      ],
      "stateMutability": "view",
      "type": "function"
    },
    {
      "inputs": [],
      "name": "decimals",
      "outputs": [
        {
          "internalType": "uint8",
          "name": "",
          "type": "uint8"
        }
      ],
      "stateMutability": "view",
      "type": "function"
    },
    {
      "inputs": [
        {
          "internalType": "bytes32",
          "name": "role",
          "type": "bytes32"
        }
      ],
      "name": "getRoleAdmin",
      "outputs": [
        {
          "internalType": "bytes32",
          "name": "",
          "type": "bytes32"
        }
      ],
      "stateMutability": "view",
      "type": "function"
    },
    {
      "inputs": [
        {
          "internalType": "bytes32",
          "name": "role",
          "type": "bytes32"
        },
        {
          "internalType": "address",
          "name": "account",
          "type": "address"
        }
      ],
      "name": "grantRole",
      "outputs": [],
      "stateMutability": "nonpayable",
      "type": "function"
    },
    {
      "inputs": [
        {
          "internalType": "bytes32",
          "name": "role",
          "type": "bytes32"
        },
        {
          "internalType": "address",
          "name": "account",
          "type": "address"
        }
      ],
      "name": "hasRole",
      "outputs": [
        {
          "internalType": "bool",
          "name": "",
          "type": "bool"
        }
      ],
      "stateMutability": "view",
      "type": "function"
    },
    {
      "inputs": [
        {
          "internalType": "address",
          "name": "to",
          "type": "address"
        },
        {
          "internalType": "uint256",
          "name": "amount",
          "type": "uint256"
        }
      ],
      "name": "mint",
      "outputs": [],
      "stateMutability": "nonpayable",
      "type": "function"
    },
    {
      "inputs": [],
      "name": "name",
      "outputs": [
        {
          "internalType": "string",
          "name": "",
          "type": "string"
        }
      ],
      "stateMutability": "view",
      "type": "function"
    },
    {
      "inputs": [
        {
          "internalType": "bytes32",
          "name": "role",
          "type": "bytes32"
        },
        {
          "internalType": "address",
          "name": "callerConfirmation",
          "type": "address"
        }
      ],
      "name": "renounceRole",
      "outputs": [],
      "stateMutability": "nonpayable",
      "type": "function"
    },
    {
      "inputs": [
        {
          "internalType": "bytes32",
          "name": "role",
          "type": "bytes32"
        },
        {
          "internalType": "address",
          "name": "account",
          "type": "address"
        }
      ],
      "name": "revokeRole",
      "outputs": [],
      "stateMutability": "nonpayable",
      "type": "function"
    },
    {
      "inputs": [
        {
          "internalType": "bytes4",
          "name": "interfaceId",
          "type": "bytes4"
        }
      ],
      "name": "supportsInterface",
      "outputs": [
        {
          "internalType": "bool",
          "name": "",
          "type": "bool"
        }
      ],
      "stateMutability": "view",
      "type": "function"
    },
    {
      "inputs": [],
      "name": "symbol",
      "outputs": [
        {
          "internalType": "string",
          "name": "",
          "type": "string"
        }
      ],
      "stateMutability": "view",
      "type": "function"
    },
    {
      "inputs": [],
      "name": "totalSupply",
      "outputs": [
        {
          "internalType": "uint256",
          "name": "",
          "type": "uint256"
        }
      ],
      "stateMutability": "view",
      "type": "function"
    },
    {
      "inputs": [
        {
          "internalType": "address",
          "name": "to",
          "type": "address"
        },
        {
          "internalType": "uint256",
          "name": "value",
          "type": "uint256"
        }
      ],
      "name": "transfer",
      "outputs": [
        {
          "internalType": "bool",
          "name": "",
          "type": "bool"
        }
      ],
      "stateMutability": "nonpayable",
      "type": "function"
    },
    {
      "inputs": [
        {
          "internalType": "address",
          "name": "sender",
          "type": "address"
        },
        {
          "internalType": "address",
          "name": "recipient",
          "type": "address"
        },
        {
          "internalType": "uint256",
          "name": "amount",
          "type": "uint256"
        }
      ],
      "name": "transferFrom",
      "outputs": [
        {
          "internalType": "bool",
          "name": "",
          "type": "bool"
        }
      ],
      "stateMutability": "nonpayable",
      "type": "function"
    }
  ],
  "bytecode": "0x608060405234801561001057600080fd5b50604051612541380380612541833981810160405281019061003291906106e1565b838381600390816100439190610997565b5080600490816100539190610997565b50505060008260ff16600a6100689190610bcb565b60646100749190610c16565b905060008360ff16600a6100889190610bcb565b836100939190610c16565b90506100a533836100df60201b60201c565b6100c03083836100b59190610c58565b6100df60201b60201c565b6100d36000801b3361016760201b60201c565b50505050505050610d7d565b600073ffffffffffffffffffffffffffffffffffffffff168273ffffffffffffffffffffffffffffffffffffffff16036101515760006040517fec442f050000000000000000000000000000000000000000000000000000000081526004016101489190610ccd565b60405180910390fd5b6101636000838361026560201b60201c565b5050565b6000610179838361048a60201b60201c565b61025a5760016005600085815260200190815260200160002060000160008473ffffffffffffffffffffffffffffffffffffffff1673ffffffffffffffffffffffffffffffffffffffff16815260200190815260200160002060006101000a81548160ff0219169083151502179055506101f76104f560201b60201c565b73ffffffffffffffffffffffffffffffffffffffff168273ffffffffffffffffffffffffffffffffffffffff16847f2f8788117e7eff1d82e926ec794901d17c78024a50270940304540a733656f0d60405160405180910390a46001905061025f565b600090505b92915050565b600073ffffffffffffffffffffffffffffffffffffffff168373ffffffffffffffffffffffffffffffffffffffff16036102b75780600260008282546102ab9190610ce8565b9250508190555061038a565b60008060008573ffffffffffffffffffffffffffffffffffffffff1673ffffffffffffffffffffffffffffffffffffffff16815260200190815260200160002054905081811015610343578381836040517fe450d38c00000000000000000000000000000000000000000000000000000000815260040161033a93929190610d2b565b60405180910390fd5b8181036000808673ffffffffffffffffffffffffffffffffffffffff1673ffffffffffffffffffffffffffffffffffffffff16815260200190815260200160002081905550505b600073ffffffffffffffffffffffffffffffffffffffff168273ffffffffffffffffffffffffffffffffffffffff16036103d35780600260008282540392505081905550610420565b806000808473ffffffffffffffffffffffffffffffffffffffff1673ffffffffffffffffffffffffffffffffffffffff168152602001908152602001600020600082825401925050819055505b8173ffffffffffffffffffffffffffffffffffffffff168373ffffffffffffffffffffffffffffffffffffffff167fddf252ad1be2c89b69c2b068fc378daa952ba7f163c4a11628f55a4df523b3ef8360405161047d9190610d62565b60405180910390a3505050565b60006005600084815260200190815260200160002060000160008373ffffffffffffffffffffffffffffffffffffffff1673ffffffffffffffffffffffffffffffffffffffff16815260200190815260200160002060009054906101000a900460ff16905092915050565b600033905090565b6000604051905090565b600080fd5b600080fd5b600080fd5b600080fd5b6000601f19601f8301169050919050565b7f4e487b7100000000000000000000000000000000000000000000000000000000600052604160045260246000fd5b6105648261051b565b810181811067ffffffffffffffff821117156105835761058261052c565b5b80604052505050565b60006105966104fd565b90506105a2828261055b565b919050565b600067ffffffffffffffff8211156105c2576105c161052c565b5b6105cb8261051b565b9050602081019050919050565b60005b838110156105f65780820151818401526020810190506105db565b60008484015250505050565b6000610615610610846105a7565b61058c565b90508281526020810184848401111561063157610630610516565b5b61063c8482856105d8565b509392505050565b600082601f83011261065957610658610511565b5b8151610669848260208601610602565b91505092915050565b600060ff82169050919050565b61068881610672565b811461069357600080fd5b50565b6000815190506106a58161067f565b92915050565b6000819050919050565b6106be816106ab565b81146106c957600080fd5b50565b6000815190506106db816106b5565b92915050565b600080600080608085870312156106fb576106fa610507565b5b600085015167ffffffffffffffff8111156107195761071861050c565b5b61072587828801610644565b945050602085015167ffffffffffffffff8111156107465761074561050c565b5b61075287828801610644565b935050604061076387828801610696565b9250506060610774878288016106cc565b91505092959194509250565b600081519050919050565b7f4e487b7100000000000000000000000000000000000000000000000000000000600052602260045260246000fd5b600060028204905060018216806107d257607f821691505b6020821081036107e5576107e461078b565b5b50919050565b60008190508160005260206000209050919050565b60006020601f8301049050919050565b600082821b905092915050565b60006008830261084d7fffffffffffffffffffffffffffffffffffffffffffffffffffffffffffffffff82610810565b6108578683610810565b95508019841693508086168417925050509392505050565b6000819050919050565b600061089461088f61088a846106ab565b61086f565b6106ab565b9050919050565b6000819050919050565b6108ae83610879565b6108c26108ba8261089b565b84845461081d565b825550505050565b600090565b6108d76108ca565b6108e28184846108a5565b505050565b5b81811015610906576108fb6000826108cf565b6001810190506108e8565b5050565b601f82111561094b5761091c816107eb565b61092584610800565b81016020851015610934578190505b61094861094085610800565b8301826108e7565b50505b505050565b600082821c905092915050565b600061096e60001984600802610950565b1980831691505092915050565b6000610987838361095d565b9150826002028217905092915050565b6109a082610780565b67ffffffffffffffff8111156109b9576109b861052c565b5b6109c382546107ba565b6109ce82828561090a565b600060209050601f831160018114610a0157600084156109ef578287015190505b6109f9858261097b565b865550610a61565b601f198416610a0f866107eb565b60005b82811015610a3757848901518255600182019150602085019450602081019050610a12565b86831015610a545784890151610a50601f89168261095d565b8355505b6001600288020188555050505b505050505050565b7f4e487b7100000000000000000000000000000000000000000000000000000000600052601160045260246000fd5b60008160011c9050919050565b6000808291508390505b6001851115610aef57808604811115610acb57610aca610a69565b5b6001851615610ada5780820291505b8081029050610ae885610a98565b9450610aaf565b94509492505050565b600082610b085760019050610bc4565b81610b165760009050610bc4565b8160018114610b2c5760028114610b3657610b65565b6001915050610bc4565b60ff841115610b4857610b47610a69565b5b8360020a915084821115610b5f57610b5e610a69565b5b50610bc4565b5060208310610133831016604e8410600b8410161715610b9a5782820a905083811115610b9557610b94610a69565b5b610bc4565b610ba78484846001610aa5565b92509050818404811115610bbe57610bbd610a69565b5b81810290505b9392505050565b6000610bd6826106ab565b9150610be1836106ab565b9250610c0e7fffffffffffffffffffffffffffffffffffffffffffffffffffffffffffffffff8484610af8565b905092915050565b6000610c21826106ab565b9150610c2c836106ab565b9250828202610c3a816106ab565b91508282048414831517610c5157610c50610a69565b5b5092915050565b6000610c63826106ab565b9150610c6e836106ab565b9250828203905081811115610c8657610c85610a69565b5b92915050565b600073ffffffffffffffffffffffffffffffffffffffff82169050919050565b6000610cb782610c8c565b9050919050565b610cc781610cac565b82525050565b6000602082019050610ce26000830184610cbe565b92915050565b6000610cf3826106ab565b9150610cfe836106ab565b9250828201905080821115610d1657610d15610a69565b5b92915050565b610d25816106ab565b82525050565b6000606082019050610d406000830186610cbe565b610d4d6020830185610d1c565b610d5a6040830184610d1c565b949350505050565b6000602082019050610d776000830184610d1c565b92915050565b6117b580610d8c6000396000f3fe608060405234801561001057600080fd5b506004361061010b5760003560e01c806336568abe116100a257806395d89b411161007157806395d89b41146102de578063a217fddf146102fc578063a9059cbb1461031a578063d547741f1461034a578063dd62ed3e146103665761010b565b806336568abe1461024657806340c10f191461026257806370a082311461027e57806391d14854146102ae5761010b565b806323b872dd116100de57806323b872dd146101ac578063248a9ca3146101dc5780632f2ff15d1461020c578063313ce567146102285761010b565b806301ffc9a71461011057806306fdde0314610140578063095ea7b31461015e57806318160ddd1461018e575b600080fd5b61012a600480360381019061012591906111c9565b610396565b6040516101379190611211565b60405180910390f35b610148610410565b60405161015591906112bc565b60405180910390f35b61017860048036038101906101739190611372565b6104a2565b6040516101859190611211565b60405180910390f35b6101966104c5565b6040516101a391906113c1565b60405180910390f35b6101c660048036038101906101c191906113dc565b6104cf565b6040516101d39190611211565b60405180910390f35b6101f660048036038101906101f19190611465565b610531565b60405161020391906114a1565b60405180910390f35b610226600480360381019061022191906114bc565b610551565b005b610230610573565b60405161023d9190611518565b60405180910390f35b610260600480360381019061025b91906114bc565b61057c565b005b61027c60048036038101906102779190611372565b6105f7565b005b61029860048036038101906102939190611533565b610651565b6040516102a591906113c1565b60405180910390f35b6102c860048036038101906102c391906114bc565b610699565b6040516102d59190611211565b60405180910390f35b6102e6610704565b6040516102f391906112bc565b60405180910390f35b610304610796565b60405161031191906114a1565b60405180910390f35b610334600480360381019061032f9190611372565b61079d565b6040516103419190611211565b60405180910390f35b610364600480360381019061035f91906114bc565b6107c0565b005b610380600480360381019061037b9190611560565b6107e2565b60405161038d91906113c1565b60405180910390f35b60007f7965db0b000000000000000000000000000000000000000000000000000000007bffffffffffffffffffffffffffffffffffffffffffffffffffffffff1916827bffffffffffffffffffffffffffffffffffffffffffffffffffffffff19161480610409575061040882610869565b5b9050919050565b60606003805461041f906115cf565b80601f016020809104026020016040519081016040528092919081815260200182805461044b906115cf565b80156104985780601f1061046d57610100808354040283529160200191610498565b820191906000526020600020905b81548152906001019060200180831161047b57829003601f168201915b5050505050905090565b6000806104ad6108d3565b90506104ba8185856108db565b600191505092915050565b6000600254905090565b60006104de6000801b33610699565b61051d576040517f08c379a000000000000000000000000000000000000000000000000000000000815260040161051490611672565b60405180910390fd5b6105288484846108ed565b90509392505050565b600060056000838152602001908152602001600020600101549050919050565b61055a82610531565b6105638161091c565b61056d8383610930565b50505050565b60006012905090565b6105846108d3565b73ffffffffffffffffffffffffffffffffffffffff168173ffffffffffffffffffffffffffffffffffffffff16146105e8576040517f6697b23200000000000000000000000000000000000000000000000000000000815260040160405180910390fd5b6105f28282610a22565b505050565b6106046000801b33610699565b610643576040517f08c379a000000000000000000000000000000000000000000000000000000000815260040161063a90611672565b60405180910390fd5b61064d8282610b15565b5050565b60008060008373ffffffffffffffffffffffffffffffffffffffff1673ffffffffffffffffffffffffffffffffffffffff168152602001908152602001600020549050919050565b60006005600084815260200190815260200160002060000160008373ffffffffffffffffffffffffffffffffffffffff1673ffffffffffffffffffffffffffffffffffffffff16815260200190815260200160002060009054906101000a900460ff16905092915050565b606060048054610713906115cf565b80601f016020809104026020016040519081016040528092919081815260200182805461073f906115cf565b801561078c5780601f106107615761010080835404028352916020019161078c565b820191906000526020600020905b81548152906001019060200180831161076f57829003601f168201915b5050505050905090565b6000801b81565b6000806107a86108d3565b90506107b5818585610b97565b600191505092915050565b6107c982610531565b6107d28161091c565b6107dc8383610a22565b50505050565b6000600160008473ffffffffffffffffffffffffffffffffffffffff1673ffffffffffffffffffffffffffffffffffffffff16815260200190815260200160002060008373ffffffffffffffffffffffffffffffffffffffff1673ffffffffffffffffffffffffffffffffffffffff16815260200190815260200160002054905092915050565b60007f01ffc9a7000000000000000000000000000000000000000000000000000000007bffffffffffffffffffffffffffffffffffffffffffffffffffffffff1916827bffffffffffffffffffffffffffffffffffffffffffffffffffffffff1916149050919050565b600033905090565b6108e88383836001610c8b565b505050565b6000806108f86108d3565b9050610905858285610e62565b610910858585610b97565b60019150509392505050565b61092d816109286108d3565b610ef6565b50565b600061093c8383610699565b610a175760016005600085815260200190815260200160002060000160008473ffffffffffffffffffffffffffffffffffffffff1673ffffffffffffffffffffffffffffffffffffffff16815260200190815260200160002060006101000a81548160ff0219169083151502179055506109b46108d3565b73ffffffffffffffffffffffffffffffffffffffff168273ffffffffffffffffffffffffffffffffffffffff16847f2f8788117e7eff1d82e926ec794901d17c78024a50270940304540a733656f0d60405160405180910390a460019050610a1c565b600090505b92915050565b6000610a2e8383610699565b15610b0a5760006005600085815260200190815260200160002060000160008473ffffffffffffffffffffffffffffffffffffffff1673ffffffffffffffffffffffffffffffffffffffff16815260200190815260200160002060006101000a81548160ff021916908315150217905550610aa76108d3565b73ffffffffffffffffffffffffffffffffffffffff168273ffffffffffffffffffffffffffffffffffffffff16847ff6391f5c32d9c69d2a47ea670b442974b53935d1edc7fd64eb21e047a839171b60405160405180910390a460019050610b0f565b600090505b92915050565b600073ffffffffffffffffffffffffffffffffffffffff168273ffffffffffffffffffffffffffffffffffffffff1603610b875760006040517fec442f05000000000000000000000000000000000000000000000000000000008152600401610b7e91906116a1565b60405180910390fd5b610b9360008383610f47565b5050565b600073ffffffffffffffffffffffffffffffffffffffff168373ffffffffffffffffffffffffffffffffffffffff1603610c095760006040517f96c6fd1e000000000000000000000000000000000000000000000000000000008152600401610c0091906116a1565b60405180910390fd5b600073ffffffffffffffffffffffffffffffffffffffff168273ffffffffffffffffffffffffffffffffffffffff1603610c7b5760006040517fec442f05000000000000000000000000000000000000000000000000000000008152600401610c7291906116a1565b60405180910390fd5b610c86838383610f47565b505050565b600073ffffffffffffffffffffffffffffffffffffffff168473ffffffffffffffffffffffffffffffffffffffff1603610cfd5760006040517fe602df05000000000000000000000000000000000000000000000000000000008152600401610cf491906116a1565b60405180910390fd5b600073ffffffffffffffffffffffffffffffffffffffff168373ffffffffffffffffffffffffffffffffffffffff1603610d6f5760006040517f94280d62000000000000000000000000000000000000000000000000000000008152600401610d6691906116a1565b60405180910390fd5b81600160008673ffffffffffffffffffffffffffffffffffffffff1673ffffffffffffffffffffffffffffffffffffffff16815260200190815260200160002060008573ffffffffffffffffffffffffffffffffffffffff1673ffffffffffffffffffffffffffffffffffffffff168152602001908152602001600020819055508015610e5c578273ffffffffffffffffffffffffffffffffffffffff168473ffffffffffffffffffffffffffffffffffffffff167f8c5be1e5ebec7d5bd14f71427d1e84f3dd0314c0f7b2291e5b200ac8c7c3b92584604051610e5391906113c1565b60405180910390a35b50505050565b6000610e6e84846107e2565b90507fffffffffffffffffffffffffffffffffffffffffffffffffffffffffffffffff8114610ef05781811015610ee0578281836040517ffb8f41b2000000000000000000000000000000000000000000000000000000008152600401610ed7939291906116bc565b60405180910390fd5b610eef84848484036000610c8b565b5b50505050565b610f008282610699565b610f435780826040517fe2517d3f000000000000000000000000000000000000000000000000000000008152600401610f3a9291906116f3565b60405180910390fd5b5050565b600073ffffffffffffffffffffffffffffffffffffffff168373ffffffffffffffffffffffffffffffffffffffff1603610f99578060026000828254610f8d919061174b565b9250508190555061106c565b60008060008573ffffffffffffffffffffffffffffffffffffffff1673ffffffffffffffffffffffffffffffffffffffff16815260200190815260200160002054905081811015611025578381836040517fe450d38c00000000000000000000000000000000000000000000000000000000815260040161101c939291906116bc565b60405180910390fd5b8181036000808673ffffffffffffffffffffffffffffffffffffffff1673ffffffffffffffffffffffffffffffffffffffff16815260200190815260200160002081905550505b600073ffffffffffffffffffffffffffffffffffffffff168273ffffffffffffffffffffffffffffffffffffffff16036110b55780600260008282540392505081905550611102565b806000808473ffffffffffffffffffffffffffffffffffffffff1673ffffffffffffffffffffffffffffffffffffffff168152602001908152602001600020600082825401925050819055505b8173ffffffffffffffffffffffffffffffffffffffff168373ffffffffffffffffffffffffffffffffffffffff167fddf252ad1be2c89b69c2b068fc378daa952ba7f163c4a11628f55a4df523b3ef8360405161115f91906113c1565b60405180910390a3505050565b600080fd5b60007fffffffff0000000000000000000000000000000000000000000000000000000082169050919050565b6111a681611171565b81146111b157600080fd5b50565b6000813590506111c38161119d565b92915050565b6000602082840312156111df576111de61116c565b5b60006111ed848285016111b4565b91505092915050565b60008115159050919050565b61120b816111f6565b82525050565b60006020820190506112266000830184611202565b92915050565b600081519050919050565b600082825260208201905092915050565b60005b8381101561126657808201518184015260208101905061124b565b60008484015250505050565b6000601f19601f8301169050919050565b600061128e8261122c565b6112988185611237565b93506112a8818560208601611248565b6112b181611272565b840191505092915050565b600060208201905081810360008301526112d68184611283565b905092915050565b600073ffffffffffffffffffffffffffffffffffffffff82169050919050565b6000611309826112de565b9050919050565b611319816112fe565b811461132457600080fd5b50565b60008135905061133681611310565b92915050565b6000819050919050565b61134f8161133c565b811461135a57600080fd5b50565b60008135905061136c81611346565b92915050565b600080604083850312156113895761138861116c565b5b600061139785828601611327565b92505060206113a88582860161135d565b9150509250929050565b6113bb8161133c565b82525050565b60006020820190506113d660008301846113b2565b92915050565b6000806000606084860312156113f5576113f461116c565b5b600061140386828701611327565b935050602061141486828701611327565b92505060406114258682870161135d565b9150509250925092565b6000819050919050565b6114428161142f565b811461144d57600080fd5b50565b60008135905061145f81611439565b92915050565b60006020828403121561147b5761147a61116c565b5b600061148984828501611450565b91505092915050565b61149b8161142f565b82525050565b60006020820190506114b66000830184611492565b92915050565b600080604083850312156114d3576114d261116c565b5b60006114e185828601611450565b92505060206114f285828601611327565b9150509250929050565b600060ff82169050919050565b611512816114fc565b82525050565b600060208201905061152d6000830184611509565b92915050565b6000602082840312156115495761154861116c565b5b600061155784828501611327565b91505092915050565b600080604083850312156115775761157661116c565b5b600061158585828601611327565b925050602061159685828601611327565b9150509250929050565b7f4e487b7100000000000000000000000000000000000000000000000000000000600052602260045260246000fd5b600060028204905060018216806115e757607f821691505b6020821081036115fa576115f96115a0565b5b50919050565b7f4467656e546f6b656e3a206d75737420686176652061646d696e20726f6c652060008201527f746f206578656375746520746869732066756e6374696f6e0000000000000000602082015250565b600061165c603883611237565b915061166782611600565b604082019050919050565b6000602082019050818103600083015261168b8161164f565b9050919050565b61169b816112fe565b82525050565b60006020820190506116b66000830184611692565b92915050565b60006060820190506116d16000830186611692565b6116de60208301856113b2565b6116eb60408301846113b2565b949350505050565b60006040820190506117086000830185611692565b6117156020830184611492565b9392505050565b7f4e487b7100000000000000000000000000000000000000000000000000000000600052601160045260246000fd5b60006117568261133c565b91506117618361133c565b92508282019050808211156117795761177861171c565b5b9291505056fea2646970667358221220a73cac0354a3f9af3bf3966d4078e1870e4d02dd924209a6bacde11d019b574764736f6c634300081a0033",
  "linkReferences": {},
  "deployedLinkReferences": {}
}