{
  "_format": "hh-sol-artifact-1",
  "contractName": "DgenToken",
  "sourceName": "contracts/DgenToken.sol",
  "abi": [
    {
      "inputs": [],
      "stateMutability": "nonpayable",
      "type": "constructor"
    },
    {
      "inputs": [
        {
          "internalType": "address",
          "name": "spender",
          "type": "address"
        },
        {
          "internalType": "uint256",
          "name": "allowance",
          "type": "uint256"
        },
        {
          "internalType": "uint256",
          "name": "needed",
          "type": "uint256"
        }
      ],
      "name": "ERC20InsufficientAllowance",
      "type": "error"
    },
    {
      "inputs": [
        {
          "internalType": "address",
          "name": "sender",
          "type": "address"
        },
        {
          "internalType": "uint256",
          "name": "balance",
          "type": "uint256"
        },
        {
          "internalType": "uint256",
          "name": "needed",
          "type": "uint256"
        }
      ],
      "name": "ERC20InsufficientBalance",
      "type": "error"
    },
    {
      "inputs": [
        {
          "internalType": "address",
          "name": "approver",
          "type": "address"
        }
      ],
      "name": "ERC20InvalidApprover",
      "type": "error"
    },
    {
      "inputs": [
        {
          "internalType": "address",
          "name": "receiver",
          "type": "address"
        }
      ],
      "name": "ERC20InvalidReceiver",
      "type": "error"
    },
    {
      "inputs": [
        {
          "internalType": "address",
          "name": "sender",
          "type": "address"
        }
      ],
      "name": "ERC20InvalidSender",
      "type": "error"
    },
    {
      "inputs": [
        {
          "internalType": "address",
          "name": "spender",
          "type": "address"
        }
      ],
      "name": "ERC20InvalidSpender",
      "type": "error"
    },
    {
      "anonymous": false,
      "inputs": [
        {
          "indexed": true,
          "internalType": "address",
          "name": "owner",
          "type": "address"
        },
        {
          "indexed": true,
          "internalType": "address",
          "name": "spender",
          "type": "address"
        },
        {
          "indexed": false,
          "internalType": "uint256",
          "name": "value",
          "type": "uint256"
        }
      ],
      "name": "Approval",
      "type": "event"
    },
    {
      "anonymous": false,
      "inputs": [
        {
          "indexed": true,
          "internalType": "address",
          "name": "from",
          "type": "address"
        },
        {
          "indexed": true,
          "internalType": "address",
          "name": "to",
          "type": "address"
        },
        {
          "indexed": false,
          "internalType": "uint256",
          "name": "value",
          "type": "uint256"
        }
      ],
      "name": "Transfer",
      "type": "event"
    },
    {
      "inputs": [],
      "name": "TEST_WALLET",
      "outputs": [
        {
          "internalType": "address",
          "name": "",
          "type": "address"
        }
      ],
      "stateMutability": "view",
      "type": "function"
    },
    {
      "inputs": [
        {
          "internalType": "address",
          "name": "owner",
          "type": "address"
        },
        {
          "internalType": "address",
          "name": "spender",
          "type": "address"
        }
      ],
      "name": "allowance",
      "outputs": [
        {
          "internalType": "uint256",
          "name": "",
          "type": "uint256"
        }
      ],
      "stateMutability": "view",
      "type": "function"
    },
    {
      "inputs": [
        {
          "internalType": "address",
          "name": "spender",
          "type": "address"
        },
        {
          "internalType": "uint256",
          "name": "value",
          "type": "uint256"
        }
      ],
      "name": "approve",
      "outputs": [
        {
          "internalType": "bool",
          "name": "",
          "type": "bool"
        }
      ],
      "stateMutability": "nonpayable",
      "type": "function"
    },
    {
      "inputs": [
        {
          "internalType": "address",
          "name": "account",
          "type": "address"
        }
      ],
      "name": "balanceOf",
      "outputs": [
        {
          "internalType": "uint256",
          "name": "",
          "type": "uint256"
        }
      ],
      "stateMutability": "view",
      "type": "function"
    },
    {
      "inputs": [],
      "name": "decimals",
      "outputs": [
        {
          "internalType": "uint8",
          "name": "",
          "type": "uint8"
        }
      ],
      "stateMutability": "view",
      "type": "function"
    },
    {
      "inputs": [
        {
          "internalType": "address",
          "name": "to",
          "type": "address"
        },
        {
          "internalType": "uint256",
          "name": "amount",
          "type": "uint256"
        }
      ],
      "name": "mint",
      "outputs": [],
      "stateMutability": "nonpayable",
      "type": "function"
    },
    {
      "inputs": [],
      "name": "name",
      "outputs": [
        {
          "internalType": "string",
          "name": "",
          "type": "string"
        }
      ],
      "stateMutability": "view",
      "type": "function"
    },
    {
      "inputs": [],
      "name": "symbol",
      "outputs": [
        {
          "internalType": "string",
          "name": "",
          "type": "string"
        }
      ],
      "stateMutability": "view",
      "type": "function"
    },
    {
      "inputs": [],
      "name": "totalSupply",
      "outputs": [
        {
          "internalType": "uint256",
          "name": "",
          "type": "uint256"
        }
      ],
      "stateMutability": "view",
      "type": "function"
    },
    {
      "inputs": [
        {
          "internalType": "address",
          "name": "to",
          "type": "address"
        },
        {
          "internalType": "uint256",
          "name": "value",
          "type": "uint256"
        }
      ],
      "name": "transfer",
      "outputs": [
        {
          "internalType": "bool",
          "name": "",
          "type": "bool"
        }
      ],
      "stateMutability": "nonpayable",
      "type": "function"
    },
    {
      "inputs": [
        {
          "internalType": "address",
          "name": "from",
          "type": "address"
        },
        {
          "internalType": "address",
          "name": "to",
          "type": "address"
        },
        {
          "internalType": "uint256",
          "name": "value",
          "type": "uint256"
        }
      ],
      "name": "transferFrom",
      "outputs": [
        {
          "internalType": "bool",
          "name": "",
          "type": "bool"
        }
      ],
      "stateMutability": "nonpayable",
      "type": "function"
    }
  ],
  "bytecode": "0x608060405234801561001057600080fd5b506040518060400160405280600981526020017f4467656e546f6b656e00000000000000000000000000000000000000000000008152506040518060400160405280600381526020017f4447540000000000000000000000000000000000000000000000000000000000815250816003908161008c91906105fc565b50806004908161009c91906105fc565b50505060006100af6100f660201b60201c565b600a6100bb919061083d565b633b9aca006100ca9190610888565b90506100f0739693cd9713496b0712f52e5f0c7b8948abda824d826100ff60201b60201c565b506109bb565b60006012905090565b600073ffffffffffffffffffffffffffffffffffffffff168273ffffffffffffffffffffffffffffffffffffffff16036101715760006040517fec442f05000000000000000000000000000000000000000000000000000000008152600401610168919061090b565b60405180910390fd5b6101836000838361018760201b60201c565b5050565b600073ffffffffffffffffffffffffffffffffffffffff168373ffffffffffffffffffffffffffffffffffffffff16036101d95780600260008282546101cd9190610926565b925050819055506102ac565b60008060008573ffffffffffffffffffffffffffffffffffffffff1673ffffffffffffffffffffffffffffffffffffffff16815260200190815260200160002054905081811015610265578381836040517fe450d38c00000000000000000000000000000000000000000000000000000000815260040161025c93929190610969565b60405180910390fd5b8181036000808673ffffffffffffffffffffffffffffffffffffffff1673ffffffffffffffffffffffffffffffffffffffff16815260200190815260200160002081905550505b600073ffffffffffffffffffffffffffffffffffffffff168273ffffffffffffffffffffffffffffffffffffffff16036102f55780600260008282540392505081905550610342565b806000808473ffffffffffffffffffffffffffffffffffffffff1673ffffffffffffffffffffffffffffffffffffffff168152602001908152602001600020600082825401925050819055505b8173ffffffffffffffffffffffffffffffffffffffff168373ffffffffffffffffffffffffffffffffffffffff167fddf252ad1be2c89b69c2b068fc378daa952ba7f163c4a11628f55a4df523b3ef8360405161039f91906109a0565b60405180910390a3505050565b600081519050919050565b7f4e487b7100000000000000000000000000000000000000000000000000000000600052604160045260246000fd5b7f4e487b7100000000000000000000000000000000000000000000000000000000600052602260045260246000fd5b6000600282049050600182168061042d57607f821691505b6020821081036104405761043f6103e6565b5b50919050565b60008190508160005260206000209050919050565b60006020601f8301049050919050565b600082821b905092915050565b6000600883026104a87fffffffffffffffffffffffffffffffffffffffffffffffffffffffffffffffff8261046b565b6104b2868361046b565b95508019841693508086168417925050509392505050565b6000819050919050565b6000819050919050565b60006104f96104f46104ef846104ca565b6104d4565b6104ca565b9050919050565b6000819050919050565b610513836104de565b61052761051f82610500565b848454610478565b825550505050565b600090565b61053c61052f565b61054781848461050a565b505050565b5b8181101561056b57610560600082610534565b60018101905061054d565b5050565b601f8211156105b05761058181610446565b61058a8461045b565b81016020851015610599578190505b6105ad6105a58561045b565b83018261054c565b50505b505050565b600082821c905092915050565b60006105d3600019846008026105b5565b1980831691505092915050565b60006105ec83836105c2565b9150826002028217905092915050565b610605826103ac565b67ffffffffffffffff81111561061e5761061d6103b7565b5b6106288254610415565b61063382828561056f565b600060209050601f8311600181146106665760008415610654578287015190505b61065e85826105e0565b8655506106c6565b601f19841661067486610446565b60005b8281101561069c57848901518255600182019150602085019450602081019050610677565b868310156106b957848901516106b5601f8916826105c2565b8355505b6001600288020188555050505b505050505050565b7f4e487b7100000000000000000000000000000000000000000000000000000000600052601160045260246000fd5b60008160011c9050919050565b6000808291508390505b6001851115610754578086048111156107305761072f6106ce565b5b600185161561073f5780820291505b808102905061074d856106fd565b9450610714565b94509492505050565b60008261076d5760019050610829565b8161077b5760009050610829565b8160018114610791576002811461079b576107ca565b6001915050610829565b60ff8411156107ad576107ac6106ce565b5b8360020a9150848211156107c4576107c36106ce565b5b50610829565b5060208310610133831016604e8410600b84101617156107ff5782820a9050838111156107fa576107f96106ce565b5b610829565b61080c848484600161070a565b92509050818404811115610823576108226106ce565b5b81810290505b9392505050565b600060ff82169050919050565b6000610848826104ca565b915061085383610830565b92506108807fffffffffffffffffffffffffffffffffffffffffffffffffffffffffffffffff848461075d565b905092915050565b6000610893826104ca565b915061089e836104ca565b92508282026108ac816104ca565b915082820484148315176108c3576108c26106ce565b5b5092915050565b600073ffffffffffffffffffffffffffffffffffffffff82169050919050565b60006108f5826108ca565b9050919050565b610905816108ea565b82525050565b600060208201905061092060008301846108fc565b92915050565b6000610931826104ca565b915061093c836104ca565b9250828201905080821115610954576109536106ce565b5b92915050565b610963816104ca565b82525050565b600060608201905061097e60008301866108fc565b61098b602083018561095a565b610998604083018461095a565b949350505050565b60006020820190506109b5600083018461095a565b92915050565b610f4d806109ca6000396000f3fe608060405234801561001057600080fd5b50600436106100a95760003560e01c806340c10f191161007157806340c10f191461016857806370a082311461018457806395d89b41146101b4578063a9059cbb146101d2578063d3a6499614610202578063dd62ed3e14610220576100a9565b806306fdde03146100ae578063095ea7b3146100cc57806318160ddd146100fc57806323b872dd1461011a578063313ce5671461014a575b600080fd5b6100b6610250565b6040516100c39190610ba1565b60405180910390f35b6100e660048036038101906100e19190610c5c565b6102e2565b6040516100f39190610cb7565b60405180910390f35b610104610305565b6040516101119190610ce1565b60405180910390f35b610134600480360381019061012f9190610cfc565b61030f565b6040516101419190610cb7565b60405180910390f35b61015261033e565b60405161015f9190610d6b565b60405180910390f35b610182600480360381019061017d9190610c5c565b610347565b005b61019e60048036038101906101999190610d86565b610355565b6040516101ab9190610ce1565b60405180910390f35b6101bc61039d565b6040516101c99190610ba1565b60405180910390f35b6101ec60048036038101906101e79190610c5c565b61042f565b6040516101f99190610cb7565b60405180910390f35b61020a610452565b6040516102179190610dc2565b60405180910390f35b61023a60048036038101906102359190610ddd565b61046a565b6040516102479190610ce1565b60405180910390f35b60606003805461025f90610e4c565b80601f016020809104026020016040519081016040528092919081815260200182805461028b90610e4c565b80156102d85780601f106102ad576101008083540402835291602001916102d8565b820191906000526020600020905b8154815290600101906020018083116102bb57829003601f168201915b5050505050905090565b6000806102ed6104f1565b90506102fa8185856104f9565b600191505092915050565b6000600254905090565b60008061031a6104f1565b905061032785828561050b565b61033285858561059f565b60019150509392505050565b60006012905090565b6103518282610693565b5050565b60008060008373ffffffffffffffffffffffffffffffffffffffff1673ffffffffffffffffffffffffffffffffffffffff168152602001908152602001600020549050919050565b6060600480546103ac90610e4c565b80601f01602080910402602001604051908101604052809291908181526020018280546103d890610e4c565b80156104255780601f106103fa57610100808354040283529160200191610425565b820191906000526020600020905b81548152906001019060200180831161040857829003601f168201915b5050505050905090565b60008061043a6104f1565b905061044781858561059f565b600191505092915050565b739693cd9713496b0712f52e5f0c7b8948abda824d81565b6000600160008473ffffffffffffffffffffffffffffffffffffffff1673ffffffffffffffffffffffffffffffffffffffff16815260200190815260200160002060008373ffffffffffffffffffffffffffffffffffffffff1673ffffffffffffffffffffffffffffffffffffffff16815260200190815260200160002054905092915050565b600033905090565b6105068383836001610715565b505050565b6000610517848461046a565b90507fffffffffffffffffffffffffffffffffffffffffffffffffffffffffffffffff81146105995781811015610589578281836040517ffb8f41b200000000000000000000000000000000000000000000000000000000815260040161058093929190610e7d565b60405180910390fd5b61059884848484036000610715565b5b50505050565b600073ffffffffffffffffffffffffffffffffffffffff168373ffffffffffffffffffffffffffffffffffffffff16036106115760006040517f96c6fd1e0000000000000000000000000000000000000000000000000000000081526004016106089190610dc2565b60405180910390fd5b600073ffffffffffffffffffffffffffffffffffffffff168273ffffffffffffffffffffffffffffffffffffffff16036106835760006040517fec442f0500000000000000000000000000000000000000000000000000000000815260040161067a9190610dc2565b60405180910390fd5b61068e8383836108ec565b505050565b600073ffffffffffffffffffffffffffffffffffffffff168273ffffffffffffffffffffffffffffffffffffffff16036107055760006040517fec442f050000000000000000000000000000000000000000000000000000000081526004016106fc9190610dc2565b60405180910390fd5b610711600083836108ec565b5050565b600073ffffffffffffffffffffffffffffffffffffffff168473ffffffffffffffffffffffffffffffffffffffff16036107875760006040517fe602df0500000000000000000000000000000000000000000000000000000000815260040161077e9190610dc2565b60405180910390fd5b600073ffffffffffffffffffffffffffffffffffffffff168373ffffffffffffffffffffffffffffffffffffffff16036107f95760006040517f94280d620000000000000000000000000000000000000000000000000000000081526004016107f09190610dc2565b60405180910390fd5b81600160008673ffffffffffffffffffffffffffffffffffffffff1673ffffffffffffffffffffffffffffffffffffffff16815260200190815260200160002060008573ffffffffffffffffffffffffffffffffffffffff1673ffffffffffffffffffffffffffffffffffffffff1681526020019081526020016000208190555080156108e6578273ffffffffffffffffffffffffffffffffffffffff168473ffffffffffffffffffffffffffffffffffffffff167f8c5be1e5ebec7d5bd14f71427d1e84f3dd0314c0f7b2291e5b200ac8c7c3b925846040516108dd9190610ce1565b60405180910390a35b50505050565b600073ffffffffffffffffffffffffffffffffffffffff168373ffffffffffffffffffffffffffffffffffffffff160361093e5780600260008282546109329190610ee3565b92505081905550610a11565b60008060008573ffffffffffffffffffffffffffffffffffffffff1673ffffffffffffffffffffffffffffffffffffffff168152602001908152602001600020549050818110156109ca578381836040517fe450d38c0000000000000000000000000000000000000000000000000000000081526004016109c193929190610e7d565b60405180910390fd5b8181036000808673ffffffffffffffffffffffffffffffffffffffff1673ffffffffffffffffffffffffffffffffffffffff16815260200190815260200160002081905550505b600073ffffffffffffffffffffffffffffffffffffffff168273ffffffffffffffffffffffffffffffffffffffff1603610a5a5780600260008282540392505081905550610aa7565b806000808473ffffffffffffffffffffffffffffffffffffffff1673ffffffffffffffffffffffffffffffffffffffff168152602001908152602001600020600082825401925050819055505b8173ffffffffffffffffffffffffffffffffffffffff168373ffffffffffffffffffffffffffffffffffffffff167fddf252ad1be2c89b69c2b068fc378daa952ba7f163c4a11628f55a4df523b3ef83604051610b049190610ce1565b60405180910390a3505050565b600081519050919050565b600082825260208201905092915050565b60005b83811015610b4b578082015181840152602081019050610b30565b60008484015250505050565b6000601f19601f8301169050919050565b6000610b7382610b11565b610b7d8185610b1c565b9350610b8d818560208601610b2d565b610b9681610b57565b840191505092915050565b60006020820190508181036000830152610bbb8184610b68565b905092915050565b600080fd5b600073ffffffffffffffffffffffffffffffffffffffff82169050919050565b6000610bf382610bc8565b9050919050565b610c0381610be8565b8114610c0e57600080fd5b50565b600081359050610c2081610bfa565b92915050565b6000819050919050565b610c3981610c26565b8114610c4457600080fd5b50565b600081359050610c5681610c30565b92915050565b60008060408385031215610c7357610c72610bc3565b5b6000610c8185828601610c11565b9250506020610c9285828601610c47565b9150509250929050565b60008115159050919050565b610cb181610c9c565b82525050565b6000602082019050610ccc6000830184610ca8565b92915050565b610cdb81610c26565b82525050565b6000602082019050610cf66000830184610cd2565b92915050565b600080600060608486031215610d1557610d14610bc3565b5b6000610d2386828701610c11565b9350506020610d3486828701610c11565b9250506040610d4586828701610c47565b9150509250925092565b600060ff82169050919050565b610d6581610d4f565b82525050565b6000602082019050610d806000830184610d5c565b92915050565b600060208284031215610d9c57610d9b610bc3565b5b6000610daa84828501610c11565b91505092915050565b610dbc81610be8565b82525050565b6000602082019050610dd76000830184610db3565b92915050565b60008060408385031215610df457610df3610bc3565b5b6000610e0285828601610c11565b9250506020610e1385828601610c11565b9150509250929050565b7f4e487b7100000000000000000000000000000000000000000000000000000000600052602260045260246000fd5b60006002820490506001821680610e6457607f821691505b602082108103610e7757610e76610e1d565b5b50919050565b6000606082019050610e926000830186610db3565b610e9f6020830185610cd2565b610eac6040830184610cd2565b949350505050565b7f4e487b7100000000000000000000000000000000000000000000000000000000600052601160045260246000fd5b6000610eee82610c26565b9150610ef983610c26565b9250828201905080821115610f1157610f10610eb4565b5b9291505056fea26469706673582212201b9cac53ad4e1b1450a1ef92fbe54a0a6645f5106ea029cdba423c12885b2e4864736f6c634300081a0033",
  "linkReferences": {},
  "deployedLinkReferences": {}
}