{
  "_format": "hh-sol-artifact-1",
  "contractName": "DgenBank",
  "sourceName": "contracts/DgenBank.sol",
  "abi": [
    {
      "inputs": [],
      "name": "ECDSAInvalidSignature",
      "type": "error"
    },
    {
      "inputs": [
        {
          "internalType": "uint256",
          "name": "length",
          "type": "uint256"
        }
      ],
      "name": "ECDSAInvalidSignatureLength",
      "type": "error"
    },
    {
      "inputs": [
        {
          "internalType": "bytes32",
          "name": "s",
          "type": "bytes32"
        }
      ],
      "name": "ECDSAInvalidSignatureS",
      "type": "error"
    },
    {
      "inputs": [
        {
          "internalType": "bytes32",
          "name": "hashedMessage",
          "type": "bytes32"
        },
        {
          "internalType": "bytes",
          "name": "signature",
          "type": "bytes"
        }
      ],
      "name": "InvalidSignature",
      "type": "error"
    },
    {
      "inputs": [
        {
          "internalType": "bytes",
          "name": "signature",
          "type": "bytes"
        }
      ],
      "name": "SignatureAlreadyClaimed",
      "type": "error"
    },
    {
      "inputs": [
        {
          "internalType": "uint256",
          "name": "value",
          "type": "uint256"
        },
        {
          "internalType": "uint256",
          "name": "length",
          "type": "uint256"
        }
      ],
      "name": "StringsInsufficientHexLength",
      "type": "error"
    },
    {
      "anonymous": false,
      "inputs": [
        {
          "indexed": true,
          "internalType": "address",
          "name": "account",
          "type": "address"
        },
        {
          "indexed": false,
          "internalType": "uint256",
          "name": "amount",
          "type": "uint256"
        }
      ],
      "name": "TokenDeposit",
      "type": "event"
    },
    {
      "anonymous": false,
      "inputs": [
        {
          "indexed": true,
          "internalType": "address",
          "name": "account",
          "type": "address"
        },
        {
          "indexed": false,
          "internalType": "uint256",
          "name": "amount",
          "type": "uint256"
        }
      ],
      "name": "TokenWithdrawal",
      "type": "event"
    },
    {
      "inputs": [
        {
          "internalType": "uint256",
          "name": "amount",
          "type": "uint256"
        }
      ],
      "name": "depositToken",
      "outputs": [],
      "stateMutability": "nonpayable",
      "type": "function"
    },
    {
      "inputs": [],
      "name": "dgtToken",
      "outputs": [
        {
          "internalType": "address",
          "name": "",
          "type": "address"
        }
      ],
      "stateMutability": "view",
      "type": "function"
    },
    {
      "inputs": [
        {
          "internalType": "bytes",
          "name": "",
          "type": "bytes"
        }
      ],
      "name": "invalidSignature",
      "outputs": [
        {
          "internalType": "bool",
          "name": "",
          "type": "bool"
        }
      ],
      "stateMutability": "view",
      "type": "function"
    },
    {
      "inputs": [
        {
          "internalType": "bytes",
          "name": "signature",
          "type": "bytes"
        },
        {
          "internalType": "uint256",
          "name": "amount",
          "type": "uint256"
        },
        {
          "internalType": "uint256",
          "name": "timestamp",
          "type": "uint256"
        }
      ],
      "name": "withdrawToken",
      "outputs": [],
      "stateMutability": "nonpayable",
      "type": "function"
    }
  ],
  "bytecode": "0x608060405273f83911ba0c71f8a9720ac831f1c53677a06bf02e600160006101000a81548173ffffffffffffffffffffffffffffffffffffffff021916908373ffffffffffffffffffffffffffffffffffffffff160217905550739693cd9713496b0712f52e5f0c7b8948abda824d600260006101000a81548173ffffffffffffffffffffffffffffffffffffffff021916908373ffffffffffffffffffffffffffffffffffffffff16021790555034801560b957600080fd5b50611912806100c96000396000f3fe608060405234801561001057600080fd5b506004361061004c5760003560e01c80636215be77146100515780636e1b48341461006d578063b94c872f1461009d578063cbc8525a146100b9575b600080fd5b61006b60048036038101906100669190610e4a565b6100d7565b005b61008760048036038101906100829190610fbd565b61020e565b6040516100949190611021565b60405180910390f35b6100b760048036038101906100b2919061109c565b610244565b005b6100c16104db565b6040516100ce9190611151565b60405180910390f35b6000811161011a576040517f08c379a0000000000000000000000000000000000000000000000000000000008152600401610111906111ef565b60405180910390fd5b600160009054906101000a900473ffffffffffffffffffffffffffffffffffffffff1673ffffffffffffffffffffffffffffffffffffffff166323b872dd3330846040518463ffffffff1660e01b81526004016101799392919061121e565b6020604051808303816000875af1158015610198573d6000803e3d6000fd5b505050506040513d601f19601f820116820180604052508101906101bc9190611281565b503373ffffffffffffffffffffffffffffffffffffffff167f20b3fc91390f6ceba342f697a9490734680fd3556633f40efa146f1dbe79d05f8260405161020391906112ae565b60405180910390a250565b6000818051602081018201805184825260208301602085012081835280955050505050506000915054906101000a900460ff1681565b600084846040516102569291906112f9565b908152602001604051809103902060009054906101000a900460ff166102b1576040517f08c379a00000000000000000000000000000000000000000000000000000000081526004016102a89061135e565b60405180910390fd5b600160009054906101000a900473ffffffffffffffffffffffffffffffffffffffff1673ffffffffffffffffffffffffffffffffffffffff166370a08231306040518263ffffffff1660e01b815260040161030c9190611151565b602060405180830381865afa158015610329573d6000803e3d6000fd5b505050506040513d601f19601f8201168201806040525081019061034d9190611393565b82111561038f576040517f08c379a00000000000000000000000000000000000000000000000000000000081526004016103869061140c565b60405180910390fd5b6103e661039c8383610501565b85858080601f016020809104026020016040519081016040528093929190818152602001838380828437600081840152601f19601f8201169050808301925050505050505061057d565b600160009054906101000a900473ffffffffffffffffffffffffffffffffffffffff1673ffffffffffffffffffffffffffffffffffffffff1663a9059cbb33846040518363ffffffff1660e01b815260040161044392919061142c565b6020604051808303816000875af1158015610462573d6000803e3d6000fd5b505050506040513d601f19601f820116820180604052508101906104869190611281565b503373ffffffffffffffffffffffffffffffffffffffff167feddb53e10e60b3a2396b4222b3db092137bdbf7a6fecceaf2b0b438ff0ddc66e836040516104cd91906112ae565b60405180910390a250505050565b600160009054906101000a900473ffffffffffffffffffffffffffffffffffffffff1681565b60008061050d3261068c565b610516856106b9565b61051f856106b9565b60405160200161053193929190611512565b604051602081830303815290604052905061054c81516106b9565b8160405160200161055e9291906115a5565b6040516020818303038152906040528051906020012091505092915050565b60008160405161058d9190611610565b908152602001604051809103902060009054906101000a900460ff16156105eb57806040517fadc184440000000000000000000000000000000000000000000000000000000081526004016105e29190611671565b60405180910390fd5b600260009054906101000a900473ffffffffffffffffffffffffffffffffffffffff1673ffffffffffffffffffffffffffffffffffffffff1661062e8383610787565b73ffffffffffffffffffffffffffffffffffffffff16146106885781816040517f8f4a234f00000000000000000000000000000000000000000000000000000000815260040161067f9291906116ac565b60405180910390fd5b5050565b60606106b28273ffffffffffffffffffffffffffffffffffffffff16601460ff166107b3565b9050919050565b6060600060016106c8846109f9565b01905060008167ffffffffffffffff8111156106e7576106e6610e92565b5b6040519080825280601f01601f1916602001820160405280156107195781602001600182028036833780820191505090505b509050600082602001820190505b60011561077c578080600190039150507f3031323334353637383961626364656600000000000000000000000000000000600a86061a8153600a85816107705761076f6116dc565b5b04945060008503610727575b819350505050919050565b6000806000806107978686610b4c565b9250925092506107a78282610ba8565b82935050505092915050565b60606000839050600060028460026107cb919061173a565b6107d5919061177c565b67ffffffffffffffff8111156107ee576107ed610e92565b5b6040519080825280601f01601f1916602001820160405280156108205781602001600182028036833780820191505090505b5090507f300000000000000000000000000000000000000000000000000000000000000081600081518110610858576108576117b0565b5b60200101907effffffffffffffffffffffffffffffffffffffffffffffffffffffffffffff1916908160001a9053507f7800000000000000000000000000000000000000000000000000000000000000816001815181106108bc576108bb6117b0565b5b60200101907effffffffffffffffffffffffffffffffffffffffffffffffffffffffffffff1916908160001a905350600060018560026108fc919061173a565b610906919061177c565b90505b60018111156109a6577f3031323334353637383961626364656600000000000000000000000000000000600f841660108110610948576109476117b0565b5b1a60f81b82828151811061095f5761095e6117b0565b5b60200101907effffffffffffffffffffffffffffffffffffffffffffffffffffffffffffff1916908160001a905350600483901c92508061099f906117df565b9050610909565b50600082146109ee5784846040517fe22e27eb0000000000000000000000000000000000000000000000000000000081526004016109e5929190611808565b60405180910390fd5b809250505092915050565b600080600090507a184f03e93ff9f4daa797ed6e38ed64bf6a1f0100000000000000008310610a57577a184f03e93ff9f4daa797ed6e38ed64bf6a1f0100000000000000008381610a4d57610a4c6116dc565b5b0492506040810190505b6d04ee2d6d415b85acef81000000008310610a94576d04ee2d6d415b85acef81000000008381610a8a57610a896116dc565b5b0492506020810190505b662386f26fc100008310610ac357662386f26fc100008381610ab957610ab86116dc565b5b0492506010810190505b6305f5e1008310610aec576305f5e1008381610ae257610ae16116dc565b5b0492506008810190505b6127108310610b11576127108381610b0757610b066116dc565b5b0492506004810190505b60648310610b345760648381610b2a57610b296116dc565b5b0492506002810190505b600a8310610b43576001810190505b80915050919050565b60008060006041845103610b915760008060006020870151925060408701519150606087015160001a9050610b8388828585610d0c565b955095509550505050610ba1565b60006002855160001b9250925092505b9250925092565b60006003811115610bbc57610bbb611831565b5b826003811115610bcf57610bce611831565b5b0315610d085760016003811115610be957610be8611831565b5b826003811115610bfc57610bfb611831565b5b03610c33576040517ff645eedf00000000000000000000000000000000000000000000000000000000815260040160405180910390fd5b60026003811115610c4757610c46611831565b5b826003811115610c5a57610c59611831565b5b03610c9f578060001c6040517ffce698f7000000000000000000000000000000000000000000000000000000008152600401610c9691906112ae565b60405180910390fd5b600380811115610cb257610cb1611831565b5b826003811115610cc557610cc4611831565b5b03610d0757806040517fd78bce0c000000000000000000000000000000000000000000000000000000008152600401610cfe9190611860565b60405180910390fd5b5b5050565b60008060007f7fffffffffffffffffffffffffffffff5d576e7357a4501ddfe92f46681b20a08460001c1115610d4c576000600385925092509250610df6565b600060018888888860405160008152602001604052604051610d719493929190611897565b6020604051602081039080840390855afa158015610d93573d6000803e3d6000fd5b505050602060405103519050600073ffffffffffffffffffffffffffffffffffffffff168173ffffffffffffffffffffffffffffffffffffffff1603610de757600060016000801b93509350935050610df6565b8060008060001b935093509350505b9450945094915050565b6000604051905090565b600080fd5b600080fd5b6000819050919050565b610e2781610e14565b8114610e3257600080fd5b50565b600081359050610e4481610e1e565b92915050565b600060208284031215610e6057610e5f610e0a565b5b6000610e6e84828501610e35565b91505092915050565b600080fd5b600080fd5b6000601f19601f8301169050919050565b7f4e487b7100000000000000000000000000000000000000000000000000000000600052604160045260246000fd5b610eca82610e81565b810181811067ffffffffffffffff82111715610ee957610ee8610e92565b5b80604052505050565b6000610efc610e00565b9050610f088282610ec1565b919050565b600067ffffffffffffffff821115610f2857610f27610e92565b5b610f3182610e81565b9050602081019050919050565b82818337600083830152505050565b6000610f60610f5b84610f0d565b610ef2565b905082815260208101848484011115610f7c57610f7b610e7c565b5b610f87848285610f3e565b509392505050565b600082601f830112610fa457610fa3610e77565b5b8135610fb4848260208601610f4d565b91505092915050565b600060208284031215610fd357610fd2610e0a565b5b600082013567ffffffffffffffff811115610ff157610ff0610e0f565b5b610ffd84828501610f8f565b91505092915050565b60008115159050919050565b61101b81611006565b82525050565b60006020820190506110366000830184611012565b92915050565b600080fd5b600080fd5b60008083601f84011261105c5761105b610e77565b5b8235905067ffffffffffffffff8111156110795761107861103c565b5b60208301915083600182028301111561109557611094611041565b5b9250929050565b600080600080606085870312156110b6576110b5610e0a565b5b600085013567ffffffffffffffff8111156110d4576110d3610e0f565b5b6110e087828801611046565b945094505060206110f387828801610e35565b925050604061110487828801610e35565b91505092959194509250565b600073ffffffffffffffffffffffffffffffffffffffff82169050919050565b600061113b82611110565b9050919050565b61114b81611130565b82525050565b60006020820190506111666000830184611142565b92915050565b600082825260208201905092915050565b7f4465706f73697420616d6f756e74206d7573742062652067726561746572207460008201527f68616e207a65726f000000000000000000000000000000000000000000000000602082015250565b60006111d960288361116c565b91506111e48261117d565b604082019050919050565b60006020820190508181036000830152611208816111cc565b9050919050565b61121881610e14565b82525050565b60006060820190506112336000830186611142565b6112406020830185611142565b61124d604083018461120f565b949350505050565b61125e81611006565b811461126957600080fd5b50565b60008151905061127b81611255565b92915050565b60006020828403121561129757611296610e0a565b5b60006112a58482850161126c565b91505092915050565b60006020820190506112c3600083018461120f565b92915050565b600081905092915050565b60006112e083856112c9565b93506112ed838584610f3e565b82840190509392505050565b60006113068284866112d4565b91508190509392505050565b7f496e76616c6964205369676e6174757265000000000000000000000000000000600082015250565b600061134860118361116c565b915061135382611312565b602082019050919050565b600060208201905081810360008301526113778161133b565b9050919050565b60008151905061138d81610e1e565b92915050565b6000602082840312156113a9576113a8610e0a565b5b60006113b78482850161137e565b91505092915050565b7f496e73756666696369656e7420746f6b656e2062616c616e6365000000000000600082015250565b60006113f6601a8361116c565b9150611401826113c0565b602082019050919050565b60006020820190508181036000830152611425816113e9565b9050919050565b60006040820190506114416000830185611142565b61144e602083018461120f565b9392505050565b600081519050919050565b600081905092915050565b60005b8381101561148957808201518184015260208101905061146e565b60008484015250505050565b60006114a082611455565b6114aa8185611460565b93506114ba81856020860161146b565b80840191505092915050565b7f5f00000000000000000000000000000000000000000000000000000000000000600082015250565b60006114fc600183611460565b9150611507826114c6565b600182019050919050565b600061151e8286611495565b9150611529826114ef565b91506115358285611495565b9150611540826114ef565b915061154c8284611495565b9150819050949350505050565b7f19457468657265756d205369676e6564204d6573736167653a0a000000000000600082015250565b600061158f601a83611460565b915061159a82611559565b601a82019050919050565b60006115b082611582565b91506115bc8285611495565b91506115c88284611495565b91508190509392505050565b600081519050919050565b60006115ea826115d4565b6115f481856112c9565b935061160481856020860161146b565b80840191505092915050565b600061161c82846115df565b915081905092915050565b600082825260208201905092915050565b6000611643826115d4565b61164d8185611627565b935061165d81856020860161146b565b61166681610e81565b840191505092915050565b6000602082019050818103600083015261168b8184611638565b905092915050565b6000819050919050565b6116a681611693565b82525050565b60006040820190506116c1600083018561169d565b81810360208301526116d38184611638565b90509392505050565b7f4e487b7100000000000000000000000000000000000000000000000000000000600052601260045260246000fd5b7f4e487b7100000000000000000000000000000000000000000000000000000000600052601160045260246000fd5b600061174582610e14565b915061175083610e14565b925082820261175e81610e14565b915082820484148315176117755761177461170b565b5b5092915050565b600061178782610e14565b915061179283610e14565b92508282019050808211156117aa576117a961170b565b5b92915050565b7f4e487b7100000000000000000000000000000000000000000000000000000000600052603260045260246000fd5b60006117ea82610e14565b9150600082036117fd576117fc61170b565b5b600182039050919050565b600060408201905061181d600083018561120f565b61182a602083018461120f565b9392505050565b7f4e487b7100000000000000000000000000000000000000000000000000000000600052602160045260246000fd5b6000602082019050611875600083018461169d565b92915050565b600060ff82169050919050565b6118918161187b565b82525050565b60006080820190506118ac600083018761169d565b6118b96020830186611888565b6118c6604083018561169d565b6118d3606083018461169d565b9594505050505056fea2646970667358221220fe207f1eaabd0b93983c3ed64c1d6916688c59c4d70b1206ac382da44564d7d464736f6c634300081a0033",
  "linkReferences": {},
  "deployedLinkReferences": {}
}